:020000040000FA
:10040000F0200020BD050000310F0000290F000082
:100410002D0F0000110E0000FD1000000000000074
:10042000000000000000000000000000350F000088
:10043000150E000000000000330F0000D50500007D
:100440004D0F0000ED0F0000D7050000490F000020
:10045000370E0000D7050000D7050000D7050000C3
:10046000D7050000D7050000D7050000D70500001C
:10047000D7050000D7050000D7050000D70500000C
:10048000170E0000250E0000270E0000290E0000A8
:100490002B0E00002D0E00002F0E0000310E00006C
:1004A000330E0000350E0000190E00001B0E000078
:1004B0001D0E00001F0E0000210E0000230E000084
:1004C000A5100000B3100000B5100000B710000028
:1004D000B9100000BB100000BD100000BF100000EC
:1004E000C1100000C3100000A7100000A9100000F8
:1004F000AB100000AD100000AF100000B110000004
:1005000000F002F800F04BF80AA090E8000C8244DA
:100510008344AAF10107DA4501D100F040F8AFF2B7
:10052000090EBAE80F0013F0010F18BFFB1A43F0D1
:10053000010318479C110000BC110000103A24BFB1
:1005400078C878C1FAD8520724BF30C830C144BF38
:1005500004680C607047000000230024002500267A
:10056000103A28BF78C1FBD8520728BF30C148BF16
:100570000B607047632900F0A581732900F0AA8100
:10058000002070471FB500F03FFC04000020002150
:1005900000F04EFF401C60601FBD10B510BD00F0A4
:1005A00015FA1146FFF7EEFF00F0CEFD00F01AFC41
:1005B00003B4FFF7F2FF03BC00F0A2FD0948804737
:1005C00009480047FEE7FEE7FEE7FEE7FEE7FEE735
:1005D000FEE7FEE7FEE7FEE704480549054A064B4D
:1005E00070470000390F000001050000F0000020F6
:1005F000F0200020F0100020F0100020704770B5AF
:100600000446051F00F050F90068002C14BF446830
:1006100070BD002C18BFAC423CBF20466468F8D3C4
:1006200001680A18AA4218BF456003D12A68054626
:100630001144016028684119A1421CBF6C6070BD63
:100640006168696021680844286070BD0FB404497E
:1006500010B503AA029800F041F910BC5DF814FB34
:10066000040000202DE9F0410E46044600202062DF
:100670002046E168884730B3252805D0D4E9012118
:100680009047206A401CF2E7E1682046002788472F
:10069000050018D0A5F14100192802D820354FF4E3
:1006A00000673246294620462760FFF763FF40B1C6
:1006B000012804D0F61D26F007060836D8E7361DB7
:1006C000D6E72846DAE7206ABDE8F08170B50C4627
:1006D0000546012A05D02878800600D5EA6900235E
:1006E00002E0012305E05B1C934202D2E05C00289B
:1006F000F9D1A869E618C01AA861286A18442862C6
:100700002846AFF3008004E0D5E9012114F8010B7D
:100710009047B442F8D32846AFF3008070BD000084
:100720000FB400B589B00BA86A46009003480A9937
:1007300000F0E6F809B05DF814FB000008000020A6
:100740002DE9FF5F4FF0000899461446464691692F
:10075000D2E901A7DDF838B001988847054659EA83
:100760000B0005D009E0A1690198761C8847054671
:10077000216A284688470028F5D1681C03D05FEA23
:10078000CA7005D015E04FF0FF3004B0BDE8F09F0F
:100790002068011D2160D0F800800AE05FEACA707D
:1007A00001D108F8015BA169761C01987F1E88477A
:1007B0000546002F1ADD681C18D0B9F1000F0DD0C6
:1007C000E81705EBD060421120F01F0059F8221005
:1007D0002A1A012090400142E0D107E0BBF1000F4E
:1007E000DCD12846216A88470028D7D0E1690198E2
:1007F0008847BBF1000F07D1002E05DD5FEACA7004
:1008000002D1002188F80010A068B84203DDBBF1D6
:10081000000F03D017B16FF00100B6E73046B4E720
:100820004FF0013C50F8042B51F8043B9A4221D17F
:10083000A2EB0C03934313EACC1317D150F8042B0B
:1008400051F8043B9A4215D1A2EB0C03934313EAEF
:10085000CC130BD150F8042B51F8043B9A4209D128
:10086000A2EB0C03934313EACC13DBD04FF0000050
:10087000704700BFD01A01BAB1FA81F101F0180136
:1008800022FA01F0CB40C1F12001DBB2C0B2C01AA4
:100890002CFA01F3D11A914311EAC311E6D1704742
:1008A000704770477047000000487047980000206C
:1008B00010B5436913B1AFF3008001E0FFF706FF05
:1008C000012010BD127800F124010A7000224A7044
:1008D0000122EDE711684FF0FF32E9E7074B70B5F1
:1008E0000D467B4400F021F80446284600F06AF8E3
:1008F00010B14FF0FF3070BD204670BD3F080000C2
:10090000034B7B449361034B7B44D36100F026B8D7
:10091000FF070000730000000048704790000020AF
:1009200001694A1C02610878704700B58FB0CDE9B3
:1009300001310021059105497944CDE903101146A3
:100940006846FFF78FFE0FB000BD0000E5FFFFFF18
:10095000026811441378016018467047D160054958
:1009600079445161044979441162002111611146B1
:1009700000F05AB8EDFFFFFFAD000000704710B562
:100980004FF0FF34C1688A020FD5036B42689A4268
:100990000BD1014690F82520104600F0FFF9401CCD
:1009A00001D1204610BD002010BD11F0C00FF8D1BC
:1009B000026941689142F4D90268491E521CC0E99B
:1009C0000021F0E7007B00F0800070477546FFF7DC
:1009D000A3FFAE4605006946534620F00700854652
:1009E00018B020B5FFF7F8FDBDE820404FF0000635
:1009F0004FF000074FF000084FF0000B21F0070107
:100A0000AC46ACE8C009ACE8C009ACE8C009ACE849
:100A1000C0098D46704710B5044600F0EDF9006836
:100A2000005D00F0010010BD2DE9F34F4FF0000A0A
:100A30000C4656468DB001200C9001F10C000B9035
:100A400062690B9801219047051E2DD0252D2CD0D1
:100A5000216A8847C0B162690B9801219047216AD9
:100A600088470028F7D16269411E0B98904700E043
:100A7000761CA1690D988847216A88470028F7D11C
:100A8000E1690D988847DBE7A1690D988847A8427E
:100A9000074601D1761CD3E7E1690D9888477F1C92
:100AA00002D1BAF1000F6FD06BE162690B98002799
:100AB0003D46394690472A2804D162690B980121A6
:100AC00090470125DFF8D08262690B980121904799
:100AD000A0F130010A290AD24745E5DC07EB87017E
:100AE00000EB4107303FDFD445F01005ECE7E906A5
:100AF00001D46FF000476C280AD04C2814D0682825
:100B000015D06A280DD074281CD07A281AD01DE080
:100B100062690B98012190476C2802D045F00405CA
:100B200014E045F002050DE045F020050AE0626999
:100B30000B9801219047682802D045F0080505E090
:100B400045F4006562690B9801219047C4E901579B
:100B500065283DD019DC58287AD00CDC452837D0E0
:100B600004DC252826D041289ED131E046282FD00C
:100B7000472899D12CE05B2877D0612828D06328BA
:100B80007CD0642823D15AE0F6E06F2848D008DCF6
:100B900066281DD067281BD0692821D06E2816D161
:100BA00027E0702845D0732868D0752847D078286A
:100BB0000DD14DE0A1690D988847252805463FF4E1
:100BC00069AFE1690D9888476D1C3FF46AAFD8E0C2
:100BD0000D9923466A466FF00100AFF30080C5E02F
:100BE00045F0400023464FF000026060A80736D46D
:100BF0003EE0E8077FF447AF2068011D21600068F0
:100C0000290501D506701BE7290701D5068017E7DE
:100C1000A90703D5F117C0E9006111E706600FE7E6
:100C200045F0400023464FF008026060A80716D444
:100C30001EE040F60E0125EA0100606016E045F076
:100C4000400023464FF00A026060A80707D40FE077
:100C500045F040006060A80708D5234610220D9992
:100C60006FF00100AFF3008080E007E01022234620
:100C70000D996FF00100AFF3008077E04FF00009AD
:100C800063284F46C8464B46CB4602D05B2806D069
:100C900038E0E80601D40120A060012732E0626953
:100CA000D4F80CB00B98012190475E2807D14FF083
:100CB000010949466269D4F80CB00B989047216944
:100CC00039B900210A4603AB43F82120491C082901
:100CD000FADBD8B3216949B308F1010862690B98BE
:100CE000012190475D28F4D1B9F1000F09D000200F
:100CF00003A951F82020D24341F82020401C0828A5
:100D0000F7DB03AB2069002820794FEA40701ED042
:100D10005B462246CDF80080CDE901970D99002869
:100D20006FF0010020DAAFF300801FE0C11703AAC3
:100D300000EBD1614B1121F01F0102EB8302411A3C
:100D400013680120884003431360C7E719E00D9939
:100D5000224600286FF00100009702DAAFF300800E
:100D600004E0FFF7EDFC01E0AFF3008000280ADAB1
:100D7000401C06D10C9820B14FF0FF300FB0BDE8F9
:100D8000F08F5046FAE7E90701D10AF1010A06445B
:100D900000200C9054E60000CCCCCC0CCA68431C5C
:100DA0000FD00D4B1A420CD1D3070AD081F8250081
:100DB0004B680B6300238B6012F0C06F0B6003D095
:100DC00004E04FF0FF30704742F00072034B1A40CE
:100DD000034B1A43CA60704780200800BFFFDFFF43
:100DE0000010480010B50446AFF300802046BDE86F
:100DF0001040FFF7DDBB000010B500F005F8001D46
:100E000010BD00BF2D06000000487047B000002054
:100E100000BFFEE7704770477047704770477047E4
:100E2000704770477047704770477047704770470A
:100E300070477047704770471CB50F200090012025
:100E40008DF8040000208DF8050069464FF08040C1
:100E500000F006F80F214FF0804000F063F81CBD51
:100E6000F0B50A460023116815795479002606600A
:100E70004660066146618661C661066246628662B8
:100E8000C66206634663866300BF09E0002700F57B
:100E9000806646F8237000F5006646F823705B1CF8
:100EA000FF2BF3D91DB906698E4306610AE0012DB7
:100EB00003D106690E43066104E0022D02D1866962
:100EC0000E438661012C09D1066A0E430662C66A8A
:100ED0000E43C662466B0E43466322E0022C09D1E4
:100EE000066A0E430662C66A0E43C662066B0E436E
:100EF000066316E0032C09D1066A0E430662866A71
:100F00000E438662466B0E4346630AE0042C08D10A
:100F1000066A0E430662066B0E430663866A0E433C
:100F20008662F0BD4160704700BFFEE700BFFEE78C
:100F300070477047704700000148024908607047D9
:100F4000002D3101000000207047000010B5302452
:100F5000164800F04FF8012823D1144800F090F80B
:100F60000446214612A0FFF771FB312C03D10E205D
:100F7000A107486015E0322C03D10D20810748609D
:100F80000FE0332C04D10B204FF08041486008E083
:100F9000342C03D107202107486002E00FA0FFF79F
:100FA00055FB024800F023F810BD0000004000503F
:100FB00055415254302072656365697665732061CE
:100FC00020527820696E7465727275707420766133
:100FD0006C75652025630D0A000000004E6F206FC0
:100FE0007065726174696F6E210D0A00704702218D
:100FF000C16070470146C868C0F3400070470000F8
:1010000010B5024600230020106050609060D06050
:1010100010610879012801D143F0010348790128C2
:1010200001D143F002038879012801D143F0040380
:10103000C879012801D143F00803087A012801D1B9
:1010400043F01003487A012801D143F02003887A45
:10105000012801D143F04003002090609360074CC9
:1010600008682468B4FBF0F01061506800F00C00D0
:1010700008B1002010BD0120FCE7000000000020A6
:10108000014600BF486800F002000028FAD0086856
:10109000C0B2704700BF426802F00102002AFAD1D4
:1010A00001607047704770477047704770477047DE
:1010B0007047704770477047704770477047704778
:1010C000704770473EB5044601208DF804000121A9
:1010D0008DF8051000208DF806008DF807108DF8AA
:1010E000080000218DF809108DF80A000094694667
:1010F0000148FFF785FF3EBD0040005000BFFEE7FE
:1011000000BFFEE710B5044600BF0548406800F088
:1011100002000028F9D00248FFF7B2FF10BD00001E
:101120000040005070B504460D46E1B20548FFF797
:10113000B1FF00BF0348406800F001000028F9D16A
:10114000204670BD0040005010B5FFF7F5FE4FF48B
:10115000E130FFF7B7FF00F003F8002010BD0000FA
:1011600000F030F93B493CA0FFF770FA71E03B49D1
:1011700039A0FFF7D5FA00286BD0384938A0FFF71F
:1011800065FA3BA13548FFF74BFB20B13AA1334844
:10119000FFF746FB30B939A0FFF758FA022148079C
:1011A000FFF7C0FE41A12D48FFF73AFB20B141A156
:1011B0002A48FFF735FB30B93FA0FFF747FA012176
:1011C0008807FFF7AFFE48A12448FFF729FB20B1AD
:1011D00047A12248FFF724FB38B946A0FFF736FAAB
:1011E00003214FF08040FFF79DFE50A11B48FFF701
:1011F00017FB20B14FA11948FFF712FB30B94EA0E1
:10120000FFF724FA04210807FFF78CFE56A11348C4
:10121000FFF706FB20B158A11048FFF701FB38B9D2
:1012200056A0FFF713FA07214FF08040FFF77AFE30
:1012300061A10A48FFF7F4FA20B161A10748FFF75E
:10124000EFFA18B9034904A0FFF700FA0348FFF7C3
:10125000D6F98CE75C140000257300001000002014
:10126000636D64206973203A25730D0A0000000045
:1012700063616D3000000000310000005377697435
:101280006368696E6720746F206D6F6465203A2013
:10129000204F6E6C7920646973706C617920636192
:1012A0006D65726120300D0A0000000063616D31D0
:1012B0000000000032000000537769746368696EB3
:1012C0006720746F206D6F6465203A20204F6E6C2C
:1012D0007920646973706C61792063616D657261F6
:1012E00020310D0A0000000063616D5F616C6C00CD
:1012F00033000000537769746368696E6720746F08
:10130000206D6F6465203A2020446973706C6179A8
:101310002063616D657261203020616E64206361BD
:101320006D65726120310D0A0000000066757369F9
:101330006F6E000034000000537769746368696E53
:101340006720746F206D6F6465203A2020446973B4
:10135000706C617920667573696F6E206772617059
:10136000686963730D0A000063616D5F616E645F9D
:10137000667573696F6E00003500000053776974FD
:101380006368696E6720746F206D6F6465203A2012
:1013900020446973706C61792063616D657261735B
:1013A00020616E6420667573696F6E20677261706C
:1013B000686963730D0A000068656C7000000000C6
:1013C0003600000010B5FFF737FD08A0FFF73EF923
:1013D00007A0FFF73BF91348FFF738F904A0FFF720
:1013E00035F911A0FFF732F910BD00000D0A000019
:1013F0002A2A2A2A2A2A2A2A2A2A2A2A2A2A2A2A4D
:101400002A2A2A2A2A2A2A2A2A2A2A2A2A2A2A2A3C
:101410002A2A2A2A2A2A2A2A2A2A2A2A2A2A2A2A2C
:101420000D0A00005C1600000D0A0D0A0000000005
:1014300010B500290AD00878002807D0054878445C
:10144000FFF7EEF9002801D0002010BD02487844D3
:1014500010BD0000B2020000AA02000048454C5036
:101460003A0D0A5B636F6D6D616E645D3A2066755F
:101470006E6374696F6E0D0A5B315D206F72205B65
:1014800063616D305D3A20646973706C61792063CB
:10149000616D65726120300D0A5B325D206F7220D4
:1014A0005B63616D315D3A20646973706C617920B2
:1014B00063616D65726120310D0A5B335D206F726F
:1014C000205B63616D5F616C6C5D3A2033646973AE
:1014D000706C61792063616D657261203020616E8E
:1014E000642063616D65726120310D0A5B345D209B
:1014F0006F72205B667573696F6E5D3A2064697305
:10150000706C617920667573696F6E2067726170A7
:10151000686963730D0A5B355D206F72205B6361E0
:101520006D5F616E645F667573696F6E5D3A2064AE
:101530006973706C61792063616D6572617320619C
:101540006E6420667573696F6E206772617068697A
:1015500063730D0A5B365D206F72205B68656C708B
:101560005D3A2068656C700D0A0000000000000004
:10157000000000000000000000000000000000006B
:10158000000000000000000000000000000000005B
:10159000000000000000000000000000000000004B
:1015A000000000000000000000000000000000003B
:1015B000000000000000000000000000000000002B
:1015C000000000000000000000000000000000001B
:1015D000000000000000000000000000000000000B
:1015E00000000000000000000000000000000000FB
:1015F00000000000000000000000000000000000EB
:1016000000000000000000000000000000000000DA
:1016100000000000000000000000000000000000CA
:1016200000000000000000000000000000000000BA
:1016300000000000000000000000000000000000AA
:10164000000000000000000000000000000000009A
:101650000000000000000000000000004E616D6509
:101660003A20202020204475616C5F43616D204347
:101670006F6D6D616E64204C696E6520496E746596
:1016800072666163650D0A45646974696F6E3A201C
:101690002056312E302E300D0A436F6D70696C6507
:1016A000643A204E6F7620313320323032312C2094
:1016B00031393A35303A31370D0A417574686F72F5
:1016C0003A20202059756E68616E47616E0D0A00E0
:1016D0000018000000000020100000003C05000081
:1016E0001018000010000020E02000005805000045
:1016F0001001000043000000F8FFFFFF00404040E1
:1017000040404040404041414141414040404040D4
:101710004040404040404040404040404005020280
:10172000020202020202020202020202022020203F
:10173000202020202020200202020202020290909B
:101740009090909010101010101010101010101099
:1017500010101010101010100202020202028888ED
:1017600088888888080808080808080808080808F9
:1017700008080808080808080202020240000000E1
:101780000000000000000000000000000000000059
:101790000000000000000000000000000000000049
:1017A0000000000000000000000000000000000039
:1017B0000000000000000000000000000000000029
:1017C0000000000000000000000000000000000019
:1017D0000000000000000000000000000000000009
:1017E00000000000000000000000000000000000F9
:1017F00000000000000000000000000000000000E9
:10180000002D310100000000000000000000000079
:0400000500000501F1
:00000001FF
